:400000000040002011000000B9060000B906000008B500F06BFBC04638B51222364B1A6000F064FD354800F08BFC012000F07EFD302000F095FC324A324B1A60324C802564
:40004000ED052560314A116802230B431360304A304B1A60304A136808218B431360FA20C00000F00FFD2D4800F002FDC02292002B4B1A602B4B2C491960802040002B490B
:4000800008602B4919602B490A602B4A1A60882149012A4A11602A4A1A60E8214901294A1160294A1A60D0214902284A1160284A1A6082221206274B1A608022D202264B9A
:4000C0001A604222254B1A60023A254B1A600132244B1A600232244B1A600132234B1A600132234B1A60F838224900F089FC082000F070FC256038BD30001040001BB70043
:400100000600008004010B400C020B4078002E402D3E00007C002E406CF02E40DC050000080301400000014042FF00800003014040FF00800403014041FF00800C03014001
:4001400043FF00801003014044FF00801403014045FF008008010B4000010B4038010140300101401C010140180101400801014004010140450C000010B572B60022464BC5
:400180001A600132454B1A70002410E0444863001A195200821891881B195B001A5AC31858880004104300F009FB0134E4B2012CECD93B49081C0C30303100F0E5FAA022A1
:4001C0001201384B1A800122374B1A70374A384B1A603322374B1A60E022D200364B1A60364A374B1A6099231B04364A1360AA210904354A1160354A13608021C902344A14
:4002000011603449344A1160A0210903334A1160334A1360F022D203324B1A60324A334B1A600223324A1360324A1360324B197802220A431A70314802783C218A4328395A
:400240000A430270197816220A431A702F222C4B1A602C4A2C4B1A6055222C4B1A60353A2B4B1A601D3A2B4B1A6021322A4B1A6004232A4A13600921294A1160294A136024
:400280003F22294B1A60294A294B1A60FFF7C4FE00F0AAFA10BDC0466CF02E401C700F40E822000000600F4002600F40000099EE0000024000010240000202403333EE00BC
:4002C0000003024000500F4004500F4010500F4018500F400400990020500F4024500F4030500F4038500F40F0000C00200120402000104000800F4000700F4001700F4011
:40030000000004409214DB00080004400C00044018000440000104400801044000020440080204401802044000030440244902000803044010B5064C2378002B07D1054B72
:40034000002B02D0044800E000BF0123237010BD48010020000000007822000008B5084B002B03D00748084900E000BF07480368002B00D108BD064B002BFBD09847F9E740
:4003800000000000782200004C010020C800002000000000064A138801339BB21380FA2B04D1131C01225A6000221A807047C0466401002008B500F0CFFC0022134B9A6059
:4003C000134B1B68DB0703D50132104B9A601AE00F4B1B689B0703D502220C4B9A6012E00B4B1B685B0703D50422084B9A600AE0074B1B681B0703D50822044B9A6002E08E
:40040000044800F08FFA00F06FFC08BD64010020100004407C22000070B582B0041C0A7802704B781B02887803436380CE78360208790643A6804D792D028879291C0143FF
:40044000E18000202081074D0C3500960191281C054901F009FB281C00F064FA201C02B070BDC046640100209022000010B584B00170090C0C0A4470817093B2190AC17059
:400480000371120C130A4371827104B010BDC04610B584B000230093019302936A4693819373002304E09A1CC15C6C46A15401330C2BF8DD502069460F22002300F0C4FED7
:4004C00000F09AFE8307FBD504B010BD10B582B0041C002300930193502069460222023300F0B2FE00F088FE8307FBD55020211C0D22012300F01EFF00F07EFEC307FBD53D
:4005000002B010BD30B58BB000230593069307930893099300F0D8FF604800F00FFC604801F006F862B600F093F95E4800F0FAF900F0F4FD00F07EFCFF2000F027FCFF203D
:4005400000F02AFC00F0F8FC0120082100F0C2FC00F098FD00F0A6FD05A80721FFF7B6FF02AC201C05A9FFF757FF6588281C00F085FC2278A188E3880091019305A84A49D8
:400580002B1C01F071FA05A800F0CCF97FE00022464B5A60002000F08FFD021C02AB1B7805A8434901F060FA05A800F0BBF93F4B9B68DA0737D502AB1C78002C0ED03D4851
:4005C00000F0B0F902AC0123237000F05FFC6080364A0C2391680B40936019E000F056FC02AD6880012000F035FC00F04FFCEB8898420DD3002000F02DFC00F047FC02AA58
:4006000050802A490C23886803408B600134147005A80299039A049BFFF728FF05A80721FFF736FF33E09B0731D502AB1C78002C09D100221A7000F029FC1C4A0C2391687F
:400640000B40936023E000F021FC02AD6880022000F000FC00F01AFCAB8898420DD8002000F0F8FB00F012FC02AA50800F490C23886803408B60013C147005A80299039AC7
:40068000049BFFF7F3FE05A80721FFF701FF074B5B68012B00D17AE789E7C046B503000095030000A42200009022000064010020CC220000E0220000FEE7C04608B5031CFC
:4006C000084A1068C318084A9A1A802A02DC054A136005E001F094F90C2303600120404208BDC046CC000020F001002070B50F4E0F4D13E029686B68AC68002202E001C98E
:4007000001C30432A242FAD1E868002202E0002102C304328242FAD11035013E002EE9D101F074F9FFF7EEFEFEE7C046010000005825000008B50F4A136801218B43136008
:4007400000230AE0032B03D89A000B49505800E00A4899000A4A885001332F2BF2D9FFF70BFD0022074B1A60024A116801230B43136008BD0000104000000000B906000013
:4007800000000020C0000020F0B50025002711E0BB00C658F3B2FF22964308E06A008A181478A419527822700135013BDBB2002BF4D10137082FEBD9F0BDC04608B50A1C8E
:4007C000002101F049F908BD064B1B68002803D080221206134301E05B005B08014A13607047C04680033A4008B50323094A1360094A136080221205084B1A60802212033E
:40080000074B1A600022074B1A600120FFF7DCFF08BDC046300030403000314000003A4000033A40000E3F4008B500F06DF808BD08B500F01DF808BD08B5044A13688021F7
:4008400009060B431360FFF7EFFF08BD0000244008B5064B1B78002B04D1FFF7E9FF0122024B1A70FFF7E8FF08BDC0468401002010B5134A134B1A600023134A13600121C6
:40088000124A1160124A13480260072412480460124803601248016012490A60124A13600421124A1160124A1360124A1360124A1360124A1360124A1360124A136010BDC4
:4008C0000B0000020000244040002440480024400700008000032440040324401003244044002440000224400402244050002440880E2440C80E2440480F2440080F2440D1
:40090000C80F2440880F2440044A1168044B0B40902109040B4313607047C04600000240FFFF0FFF38B5051C002402E000F00EFE0134285D0028F9D138BDC04600000000DF
:400940000230800803D00138FDD1C046C046C0467047EFF3108072B6704780F31088704710B586B0041CFFF7F4FF0E4B1B6800930D4B1B680193033C0C4B1B5D02930C4B2B
:400980001B68039304AA0B4B04936B4605930A4B1A600A490A4A11601B68FFF7DEFF06B010BDC04608010B4000010B40CC24000030001040B6EA00000800104017000080D5
:4009C00004001040024B1B68012018407047C0460C002E401F2318401E3B8340181C014B1860704700E100E01F2318401E3B8340181C014B1860704780E100E001BE7047E1
:400A000038B5041C0D1C1F2802D90020FFF7F6FFA400034B9C4664442068256038BDC0464000002070B5041C0E1E032E02D90020FFF7E4FF1F2C02D90020FFF7DFFF0325B7
:400A40002540ED000635FFF784FFA408A400074B9C46644423680322AA409343AE40351C1D432560FFF779FF70BDC04600E400E008B5034B1B7A5843FFF762FF08BDC046EE
:400A8000D000002010B5041C0F4A116801230B4313600E4A0E4B1A600E4A1368802109020B431360002809D100200CE00120FFF7DFFFFFF787FF002804D1013C002CF5D194
:400AC000102000E0002010BD60F02E400220000078002E4010002E40034B1868C0231B02184000D00120704700010B4010B50D4B1A6801218A431A601A68022082431A60B0
:400B0000094A10683024A043203C204310601068093CA043014311601A68802109060A431A6010BD00F02E4000FF2E4038B51D4B1B6801241C40002802D0012816D02BE031
:400B4000184B19680122914319601968022081431960154B19682E3081432038014319601968093881430A431A6018E00D4B1A6802218A431A600C4A10680725A843014377
:400B80001160116830208143103801431160196801220A431A6002E00020FFF72FFF201C38BDC04600F02E4000FF2E4008B5FFF7D0FE044A1368C02109020B431360FFF7BA
:400BC000CCFE08BD00010B4010B5FFF7C2FE08490A68084B1A408024E40122430A600A6813408022120213430B60FFF7B6FE10BD00010B40FF3FFFFF70B5061CFFF7A9FEB8
:400C0000041CFFF769FF002803D0FFF7DDFF012500E000250848331C0340084A106808490840184310601368012D01D1FFF7BEFF201CFFF792FE70BD0404040010020B40A8
:400C4000FBFBFBFF10B5244B1B685B0715D5234B1B685B070ED5224B9969042001401F4C22688A4322609A6982439A61DB68002B00D098470420FFF7BFFF174B1B685B0536
:400C800018D5164B1B685B0510D5154B99698022D2001140114802688A4302609969114A0A409A611B69002B00D098478020C000FFF7A2FF084B1B685B030CD5074B1B6824
:400CC0005B0304D5064B5B69002B00D098478020C002FFF791FF10BD10020B40E000002088010020FFFBFFFF024A10680F2318401060704710000440014B18647047C046CD
:400D00000000002010B5041CFFF723FE044A1368C0218B43A4011C431460FFF71EFE10BD00E400E00122014B1A60704700E100E00122014B1A60704780E100E010B5041CDD
:400D4000FFF7F6FF201CFFF7D7FF0320FFF7DAFFFFF7E8FF10BDC0460122014B1A60704780E200E0024A117880230B431370704771000F40014B18707047C04600000F405C
:400D8000014B18707047C04640000F40014B18707047C04620000F40014B18707047C04630000F40014B18707047C04680000F40014B1878C0B2704760000F40014B187813
:400DC000C0B2704750000F4008B501E0FFF7F6FFFFF7EEFFC306F9D408BDC04610B513490B783F229343363A13430B70104C2278012313432370FF20FFF7BCFFFF20FFF75A
:400E0000BFFF7F20FFF7C2FF7F20FFF7C5FF0020FFF7C8FFFFF79DFD2278102313432370FFF79BFDFFF7D0FF10BDC04671000F4090000F4008B5064B1B78002B04D1FFF7C6
:400E4000CDFF0122024B1A70FFF78CFF08BDC046A4010020014B18707047C04670000F4008B5FFF776FD044A116801230B431360FFF773FD08BDC046000020400004000CD8
:400E8000014B18607047C04608012040024B18680004000C7047C0460801204010B5041CFFF757FD054B1968054A0A401A601A6814431C60FFF751FD10BDC0460001204065
:400EC000FFFFFCFF0004000C014B18607047C0461401204038B5041C0D1CFFF73AFDAC40024B1C60FFF739FD38BDC04608002040014B18607047C0463801204010B5C0228B
:400F000092040B4B1A60C32292000A4B1A600120FFF7EEFF80204002FFF7C0FF80242402201CFFF7CFFF201CFFF7A8FF10BDC046000120402401204008B5064B1B78002B42
:400F400004D1FFF7DBFF0122024B1A70FFF788FF08BDC046A501002008B50F200321FFF761FD0F202349FFF74BFD0122224B1A60224B1B68002B01DA214900E02149224A67
:400F800013680B431360214A214B1A60214A224B1A600023214A1360214A22490A6022490A6022490A688020400202430A60204A1360204A136001221F4B1A601F4A11682B
:400FC0001F4B0B40802189050B43136000230DE09A001C498C4662440021116058001A4A8152990019481A4A88500133002BEFD008BDC046E510000020003A4080033A40F9
:40100000700210517002005100003A408C00008004003A400000FF0718003A401C003A400200020010003A4014003A4000033A4028023A4038023A4018023A4030003A40B9
:40104000FEFFFFDF80003A40BC0100203E180000C001002008B5094B1B68002B0CDB084B1B68002BFBDB054A1368802109060B4313600A20FFF7FCFC08BDC04600003A4072
:4010800008023A4008B5064B1B78002B04D1FFF763FF0122024B1A70FFF7DCFF08BDC046A6010020034A1368802149020B4313607047C04604003A4010B5041E02D00020CD
:4010C000FFF79CFC002C07D1A400054B9C46644420680004000C00E0002000B210BDC04680013A40014B1A681A60704710023A4008B50A20FFF76EFC08BDC04608B500F07E
:401100001DF808BD08B5044A1368802109060B431360FFF7EDFF08BD0000254008B5064B1B78002B04D1FFF7E9FF0122024B1A70FFF7E8FF08BDC046A801002010B50024FF
:40114000194B1C60194A1A4B1A601A4B1A4A13601A4A14601A4A14601A4A13601A4B1C600A20FFF741FC0A200321FFF75BFC0A201649FFF745FC164B1C60164B1C60164BD6
:401180001C601422FF32154B1A60154B1C60154B1C60043AFF3A144B1A70144B1C80144B1C60144B1C6010BD00002540770800806000254007010080000325400403254057
:4011C00010032540000225400402254069150000C80E2540880E2540480F2540080F2540C80F2540880F2540C4010020D4010020E4010020CC01002010B50A20FFF7F4FBE1
:40120000074B1B889BB21C1C064A1278920601D504241C430A20FFF7DDFB201C10BDC046D4010020C4010020054B1B682022134000D0082301221343024A13607047C0462C
:401240006400254068002540F0B583B001900C1C171C1D1C002919D0284B1B78102B0AD10A20FFF7C1FB264B1B68DB0701D508260FE000260DE0214B1B78602B08D1214A27
:40128000138808218B431380002602E0042600E00426002E2BD12822184B1A7000231A4A13601A4A13601A4B1F601A4B1C60EAB2194B1A70019B5C00FF231C40114A1388E0
:4012C00002218B431380154A154B1A604023154A1360154A1360EB0704D5FFF7A5FF134B1C6004E0114B1C600222114B1A600A20FFF770FB301C03B0F0BDC046C401002013
:4013000064002540D4010020C8010020CC010020D0010020E8010020DC01002017030000000F2540800F2540880F25404002254068002540F0B583B001900C1C171C1D1C33
:40134000002919D02D4B1B78102B0AD10A20FFF74BFB2B4B1B68DB0701D508260FE000260DE0264B1B78602B08D1264A138808218B431380002602E0042600E00426002E8C
:4013800035D129221D4B1A7000221F4B1A601F4A17601F4B1C60EBB21E490B70019B5C00FF231C400120044316490B8883430B8019491A4B19601368072B03D80422184B2D
:4013C0001A6008E0174A1368802149000B4313600822134B1A60EB0704D5FFF725FF124B1C6004E0104B1C600222104B1A600A20FFF7F0FA301C03B0F0BDC046C4010020EF
:4014000064002540D4010020E4010020E0010020D8010020DC01002017030000000F2540C80F2540600025404002254068002540024A117880230B431370704773000F402D
:40144000014B18707047C04683000F40014B1878C0B2704763000F40014B18807047C04644100F40014B188880B2704784100F40014B18807047C04604100F4008B501E0B4
:40148000FFF7F0FFFFF7E2FF0307F9D408BDC04610B50B4C201CFFF7DFFF201CFFF7E8FFFFF757FA074A117810230B431370FFF754FAFFF7E3FF0120FFF7C2FF10BDC0469D
:4014C000BF5D000093000F4008B5064B1B78002B04D1FFF7DDFF0122024B1A70FFF7A8FF08BDC046B0010020014B58647047C0460000002010B5041CFFF72BFA044A11689C
:40150000044B0B40A4031C431460FFF726FA10BD00E400E0FF3FFFFF0222014B1A60704700E100E00222014B1A60704780E100E010B5041CFFF7F6FF201CFFF7D5FF032077
:40154000FFF7D8FFFFF7E8FF10BDC046044B1B681F221340082BF9D0024B18607047C046080224404002244010B5B94B1B68002B00D09847B74B1B68DB0702D50022B64B6F
:401580001A60B64B1B789B0628D5B54B1B68DB0507D5B44A1188C0239B000B431380012300E00023AE4A1268D20706D5AD4A118890239B000B4313800123002B0FD0A74A1F
:4015C0001278D20701D5012200E00222A549088802430A800021A14A117000E000239F4A1278920600D417E19D4A1268D20611D510229D4B1A60994B1B78DB0701D50123D1
:4016000000E00223974A11880B4313801022934B1A701BE1914A1278120720D5904A126892070AD50222904B1A608E4A118888239B000B431380012311E0884A1278D2071A
:4016400003D52521854A117009E02421834A1170864A1268002A02D01439854A11607F4A1278520700D4AEE07C4A1278D20749D5804A1268120727D57F4A12687F49096883
:401680001F240C407E4909686418141B082C09D8002C16D17B4A11687B4B0B401360012308340EE008240CE0754A116877480068411877480068C0B2087011680131116083
:4016C000013C002CF0D119E06A4A1268520715D56B4A11686D48006841186D480068C0B208701168013111601168634A1268914203D20421674A116000E001236649674A9C
:40170000116060E0564A1268920726D50222564B1A60634A13681F211940136880221202134000D00123CB185E4A1168CB1A136012685D4B1A604B4A118884239B000B431C
:4017400013805A4B1A68802149020A431A601968574A0A401A60012335E0564A1268D2061ED427E04F4A1168404A126891421DD23E4A1268013A4B4909688A4204D14022D5
:401780004D490A603A490A60464A11684B48006841180978C9B24A4801601168013111603F4A12681F210A40082ADBD11021424A116008E03F4A1268520604D5394B1A6819
:4017C000394B1A600123002B40D02E4A11682E4B0B40136000233B4A1360254A13603A4B1B789B070ED51D4B1B78DB0701D5092300E00A231B4A11880B4313806022174B1B
:401800001A7023E0314B1B689B0601D5182200E01022204B1A6019E0104B1B78DB0615D42B4A13685B005B08136010210B4B1970144B186827490140196018682649014059
:4018400019601368802109060B43136010BDC046AC0100208C0E2540880E2540C40100200C0F2540D4010020000F2540D0010020880F2540CC0F2540E001002008032540FD
:40188000E401002060002540FFFEFFFFD80100204003254068002540ED0F0000C00F254008022540C8010020CC01002004022540FFFFFEFF8C0F2540800F2540E80100201D
:4018C00040022540C80F2540DC0100206400254000002540FF5FFFFFFFFCFFFF002243088B4274D303098B425FD3030A8B4244D3030B8B4228D3030C8B420DD3FF2209024A
:4019000012BA030C8B4202D31212090265D0030B8B4219D300E0090AC30B8B4201D3CB03C01A5241830B8B4201D38B03C01A5241430B8B4201D34B03C01A5241030B8B42B3
:4019400001D30B03C01A5241C30A8B4201D3CB02C01A5241830A8B4201D38B02C01A5241430A8B4201D34B02C01A5241030A8B4201D30B02C01A5241CDD2C3098B4201D36C
:40198000CB01C01A524183098B4201D38B01C01A524143098B4201D34B01C01A524103098B4201D30B01C01A5241C3088B4201D3CB00C01A524183088B4201D38B00C01AC7
:4019C000524143088B4201D34B00C01A5241411A00D20146524110467047FFE701B5002000F00CF802BDC0460029F7D003B5FFF775FF0EBC4243891A1847C0467047C04601
:401A0000014B18687047C046440100200E4B70B500251E1C0D4CE41AA410A54204D0AB00F35898470135F8E700F084FD084B00251E1C084CE41AA410A54204D0AB00F35851
:401A400098470135F8E770BD40250000402500004025000048250000031C8218934202D019700133FAE770470EB410B59DB002A9029008610B48822488604861012040424D
:401A80001FABC881084804CBA400006801938C8100F06CF80023029A13701DB010BC08BC03B01847FFFFFF7F44010020F0B58E6885B0071C0C1C03920193B34245D390235D
:401AC0008A89DB001A423DD003250969236801985B1A029363695D43EB0F5D19029B6D1001331B189D4200D21D1C381C53050FD5291C00F025FB061E13D0029A216900F07E
:401B0000BCFAA289184B134080221343A38111E02A1C00F06DFB061E0CD1381C216900F0C9FA0C23402201203B60A38940421343A38117E0029B2661F61826606561019E48
:401B4000ED1AA560019BB34200D2019E321C2068039900F09BFA0020A3689B1BA36023689E19266005B0F0BD7FFBFFFFF0B59FB0029005938B890E1C171C1B0610D50B69D1
:401B8000002B0DD1402100F0DBFA30603061002804D10C23029A01381360D0E040237361002306AD6B6120336B761033AB763C1C2378002B03D1E31B049312D003E0252BA4
:401BC000F9D00134F4E7049B0298311C3A1CFFF76DFF431C00D1ACE06A69049B944663446B612378002B00D1A3E00122002352426A6002A95432521801342B60EB60AB60E4
:401C00001370AB654F4F2178381C052200F02AFA002808D0C01B01278740381C2B68013418432860EEE72B68DA0604D55322202102A8121811701A0704D553222B2102A8F1
:401C40001218117022782A2A01D0099B0EE0059A111D12680591002A01DB099204E05242EA60022213432B60013409E02278303A092A04D80A214B4301349B18F6E70993D8
:401C800023782E2B18D163782A2B09D1059B02341A1D1B680592002B0DDA01235B420AE0002301342278303A092A04D80A214B4301349B18F6E70793234F2178381C032252
:401CC00000F0D0F9002807D0C01B40278740381C2B6801341843286021781C480622671C297600F0BFF9002812D0194B002B06D10722059B073393430833059314E005AB75
:401D000000930298291C321C124B00E000BF07E005AB00930298291C321C0E4B00F08AF80390039B013304D06B69039A9B186B613DE7B3890B985B0601D5012040421FB0F0
:401D4000F0BDC046FE240000042500000825000000000000AD1A0000F7B5171C01930A698B6800900C1C934200DA131C221C3B6043321278002A01D001333B6023689B0634
:401D800002D53B6802333B60062523681D401ED0231C43331B785A1E9341226892061CD53020E1184031C870211C5A1C45310978A21840320233D1700FE0221C012300980A
:401DC00001991932089EB047431C0ED00135E3683A689B1A9D42F0DBDAE7221C009801994332089DA847431C02D10120404220E006232068E1683A6803400025042B03D18C
:401E00008D1AEB43DB171D40A3682269934201DD9B1AED180027AF420ADA221C0123009801991A32089EB047431CDED00137F2E70020FEBDF0B58BB006920A1C433207935C
:401E4000059004920A7E0C1C109B6E2A00D1A8E011D8632A22D009D8002A00D1B2E0582A00D0C2E045310A707C4A4FE0642A1DD0692A1BD0B9E0732A00D1A7E009D86F2A3B
:401E800029D0702A00D0B0E0202209680A43226037E0752A1FD0782A33D0A6E00E1C1A684236111D196013683370A1E021681A68080606D4490604D5111D19600023D55E5B
:401EC00002E0111D19601568002D3BDA2D23049A6D42137036E021681A68080606D4490604D51568111D1960ADB202E0111D196015685A4B227E03930A276F2A1DD10827FE
:401F00001BE0221C782145321170554A19680392081D226818600D68100602D4500600D5ADB2D30702D520231A4322601027002D03D1202322689A432260231C0022433302
:401F40001A7002E00A27454B03936368A360002B03DB0422216891432160002D02D1049E002B0ED0049E281C391CFFF73DFD039B013E5B5C281C3370391CFFF7AFFC051E19
:401F8000F1D1082F09D12368DB0706D563682269934202DC3023013E3370049B9B1B23612BE009681A68080607D4490605D5111D19601368A28A1A8004E0111D19601368F1
:401FC00062691A600023049E236116E01A68111D196016680021301C626800F043F8002801D0801B6060636803E0261C42363270012323610023049A1370079B0598009338
:40200000211C069B09AAFFF7A7FE431C02D10120404221E0236905980699321C079DA847431CF4D023689B0705D4099BE068984212DA181C10E00025E368099A9B1A9D424F
:40204000F3DA221C0123059806991932079EB047431CDCD00135EFE70BB0F0BD0F25000020250000C9B28218904204D003788B4202D00130F8E700207047002310B593429D
:4020800003D0CC5CC4540133F9E710BD10B5814208D28B18984205D29B1A013A09D3995C8154FAE70023934203D0CC5CC4540133F9E710BD30B500293ED004390B68002B1C
:4020C00000DAC9181D4A1368141C002B02D14B60116031E099420DD208680A189A4203D11368C3180B6053684B60216024E08A4203D8131C5A68002AF9D11D685C198C42EC
:402100000BD10968691858181960904214D110685268091819605A600EE08C4202D90C23036009E008680C18944203D114685268001908604A60596030BDC046B801002075
:40214000032370B5CC1C9C430834051C0C2C01D20C2405E0002C03DA0C2300202B6042E08C42F9D3204A1368101C191C002913D00A68121B0DD40B2A02D90A608B181FE043
:402180008B4202D15A6802601BE04A685A600B1C17E00B1C4968E9E7144E3368002B03D1281C00F04BF83060281C211C00F046F8031C421CD0D00322C61C964386420AD1DC
:4021C0001C60181C07210B301A1D8843821A0AD05142995007E0311A281C00F02FF8431CBAD0331CECE770BDB8010020B4010020F8B5061C0C1C151C002904D1111CFFF71C
:402200009FFF041C18E0002A03D1FFF753FF2C1C12E000F025F8A8420ED2301C291CFFF78FFF071E07D0211C2A1CFFF726FF301C211CFFF73FFF3C1C201CF8BD38B50023CC
:40224000064C051C081C2360FEF738FA431C03D12368002B00D02B6038BDC046EC0100200B1F1A68101F002A04DA891804390B68D01804387047000000000000434F4D4D96
:40228000414E4420554E4B4E4F574E210A0D000025642C2025642C2025642C2025640A0D0000000050536F43205541525420436F6D6D756E69636174696F6E2045737461D0
:4022C000626C69736865640A0D000000616D70733A2025642C20706F733A2025640A0D0048490A0D0000000000300F40000400400F40000402000F4032300F4020310F4060
:402300003A320F4028330F4009410F400A420F400F430F4002600F40800F830D02040B030C011102120317042F043002310133043401360437023F044010410645D046156F
:402340004702481E49FF4AFF4BFF4DA04F0450185407580459045A045B045C335D335F01604062C06440654066C068C06AC06CC06EC0B501BF10D280D904DB04DD30DF017E
:40238000004001020B801841199021022244240829803008310238204001480849015018534059115A886A406B0475028304C009C208CA08CC03CE04D008D204D60FE00179
:4023C000404549FF4AFF4BFF4F0150185A045B045D015F016040624064406540668068806A806C806E808B018E018F029201AF03B001B201B302B701BE01C054C5ECC72000
:40240000C823C9FFCAFFCBFFCD83CE03CF01D018D280D401D804D904DA04DB04DC31DD11DF01E040E240E440E540E680E880EA80EC80EE8002020B401A60200122042980AF
:4024400038203B804101468049054B404E025101520259055A406F0A7280734082108A048B028C018F08902093809980A804B640C001C208CA08CE0CD081D218D60BE210C8
:40248000E680EC01500456206F2083208A208C04D460DA80E62003200501490152206F208320C00CD202D404DA015040578059805F208B808C4099809B20AA20B580D40751
:4024C000D604E001E408EC02100A1101030405060708090A0B0C0E0F101112131415161718191B1C1D1E1F2021222325262728292A2B2E2F30313233343500004300232D98
:40250000302B2000686C4C006566674546470030313233343536373839414243444546003031323334353637383961626364656600000000F8B5C046F8BC08BC9E46704732
:402540005D03000035070000F8B5C046F8BC08BC9E4670473503000068250000C800002080000000A800000000000000F00100200000C05D80BB000030000000006CDC0241
:40258000040404000000000000000000000000000000000000000000000000000000000000000000FC240000000000000000000000000000000000000000000000000000EF
:4025C000000000000000000000000000000000000000000000000000000000000000000000000000E4000020000000000000000000000000000000000000000000000000D7
:40260000000000000000000000000000000000000000000000000000000000000000000000000000000000000000000000000000000000000000000000000000000000009A
:40264000000000000000000000000000000000000000000000000000000000000000000000000000000000000000000000000000000000000000000000000000000000005A
:40268000000000000000000000000000000000000000000000000000000000000000000000000000000000000000000000000000000000000000000000000000000000001A
:4026C00000000000000000000000000000000000000000000000000000000000000000000000000000000000000000000000000000000000000000000000000000000000DA
:020000040001F9
:0200000490303A
:02000000DAAD77
:0200000490402A
:4000000000000000000000000000000000000000000000000000000000000000000000000000000000000000000000000000000000000000000000000000000000000000C0
:400040000000000000000000000000000000000000000000000000000000000000000000000000000000000000000000000000000000000000000000000000000000000080
:0200000490501A
:0C00000000020E34119E00010E3FEC4B7C
:0200000490600A
:0100000001FE
:00000001FF