:400000000040002011000000F1040000F104000008B500F087FAC04638B512222D4B1A6000F076FC2C4800F0A7FB012000F090FC302000F0B1FB294A294B1A60294C8025B2
:40004000ED052560284A116802230B431360274A274B1A60274A136808218B431360FA20C00000F021FC244800F014FCC0229200224B1A60224B2349196023490A60234A42
:400080001A6088214901224A1160224A1A60D0214902214A1160214A1A6082221206204B1A608022D2021F4B1A6041221E4B1A60013A1E4B1A6002321D4B1A6001321D4B03
:4000C0001A6008201C4900F0ADFB082000F09EFB256038BD30001040001BB7000600008004010B400C020B4078002E402D3E00007C002E406CF02E40DC0500000403014087
:400100000000014041FF00800003014040FF00800803014042FF00800C03014043FF008008010B4000010B402C0101401C0101401801014004010140690A000010B572B630
:4001400000223A4B1A60002410E0394863001A195200821891881B195B001A5AC31858880004104300F046FA0134E4B2012CECD92F49081C0C302C3100F022FA80225200F7
:400180002C4B1A80FF3A2C4B1A702C4A2C4B1A60E022D2002B4B1A602B4A2C4B1A6099231B042B4A1360AA2109042A4A11602A492A4A1160A0210903294A1160294A1360F4
:4001C0008F225204284B1A60284A294B1A60294B197802220A431A70274802783C218A4328390A430270197816220A431A702F22224B1A60224A234B1A605522224B1A60EE
:40020000353A224B1A600423214A13600921214A1160214A13603F22204B1A60204A214B1A60FFF7F9FE00F0FBF910BD6CF02E404C19000000600F4002600F40000099EE35
:400240000000024000020240333333000003024000500F4004500F400400990020500F4024500F4030500F4038500F40F0000C002001204000700F4001700F4000000440D3
:400280009214DB00080004400C0004401800044000020440080204401802044000030440244902000803044010B5064C2378002B07D1054B002B02D0044800E000BF0123BD
:4002C000237010BD4801002000000000D818000008B5084B002B03D00748084900E000BF07480368002B00D108BD064B002BFBD09847F9E700000000D81800004C0100201A
:40030000C80000200000000008B500F037FC00221A4B1A601A4B1B68DB070AD5194800F01DFA16490C230A681340012213430B6021E0134B1B689B070AD5134800F00EFAF6
:400340000E490C230A681340022213430B6012E00B4B1B685B0703D50422084B1A600AE0074B1B681B0703D50822044B1A6002E0064800F0F3F900F0C9FB08BD640100209F
:4003800010000440DC180000E8180000F818000030B587B00023019302930393049305934B4800F0DDFB62B600F06EF9494800F0D5F900F051FCFF2000F0FAFBFF2000F04F
:4003C000FDFB00F0D1FC0120082100F09BFC00F075FC051C00F06EFD00F07CFD3E4B1B68DA071AD5022000F047FC00F067FCFA239B00EC18A04267D3002000F03DFC364A0C
:400400000C2311680B40136000F058FC021C01A83249231C00F058FE56E09A0719D5012000F02AFC00F04AFC2D4BEC18A0424BD8002000F021FC284A0C2311680B40136093
:4004400000F03CFC021C01A82449231C00F03CFE3AE05A071AD5012000F014FC002000F043FD204B98422FDD002000F00BFC1A4A032311680B401360002000F035FD021C53
:4004800001A81949194B00F01FFE1DE01B071BD5022000F0F7FB002000F026FDFA235B00984211DC002000F0EDFB0B4A032311680B401360002000F017FD021C01A80A4953
:4004C000FA235B0000F000FE01A800F047F985E7090300000C190000640100203419000018FCFFFFDB05000040190000DC050000FEE7C04608B5031C084A1068C318084A64
:400500009A1A802A02DC054A136005E000F0A8FD0C2303600120404208BDC046CC000020B801002070B50F4E0F4D13E029686B68AC68002202E001C901C30432A242FAD1BE
:40054000E868002202E0002102C304328242FAD11035013E002EE9D100F088FDFFF718FFFEE7C04601000000F41A000008B50F4A136801218B43136000230AE0032B03D88A
:400580009A000B49505800E00A4899000A4A885001332F2BF2D9FFF7D1FD0022074B1A60024A116801230B43136008BD0000104000000000F104000000000020C0000020EF
:4005C000F0B50025002711E0BB00C658F3B2FF22964308E06A008A181478A419527822700135013BDBB2002BF4D10137072FEBD9F0BDC04608B50A1C002100F05DFD08BD21
:40060000064B1B68002803D080221206134301E05B005B08014A13607047C04680033A4008B50323094A1360094A136080221205084B1A6080221203074B1A600022074BD8
:400640001A600120FFF7DCFF08BDC046300030403000314000003A4000033A40000E3F4008B500F06DF808BD08B500F01DF808BD08B5044A1368802109060B431360FFF733
:40068000EFFF08BD0000244008B5064B1B78002B04D1FFF7E9FF0122024B1A70FFF7E8FF08BDC0467C01002010B5134A134B1A600023134A13600121124A1160124A1348D2
:4006C0000260072412480460124803601248016012490A60124A13600421124A1160124A1360124A1360124A1360124A1360124A1360124A136010BD0B0000020000244099
:4007000040002440480024400700008000032440040324401003244044002440000224400402244050002440880E2440C80E2440480F2440080F2440C80F2440880F2440CD
:40074000044A1168044B0B40902109040B4313607047C04600000240FFFF0FFF38B5051C002402E000F0DCFB0134285D0028F9D138BDC046000000000230800803D0013846
:40078000FDD1C046C046C0467047EFF3108072B6704780F31088704710B586B0041CFFF7F4FF0E4B1B6800930D4B1B680193033C0C4B1B5D02930C4B1B68039304AA0B4B96
:4007C00004936B4605930A4B1A600A490A4A11601B68FFF7DEFF06B010BDC04608010B4000010B40681A000030001040B6EA0000080010401700008004001040024B1B68FE
:40080000012018407047C0460C002E401F2318401E3B8340181C014B1860704700E100E001BE704738B5041C0D1C1F2802D90020FFF7F6FFA400034B9C4664442068256080
:4008400038BDC0464000002070B5041C0E1E032E02D90020FFF7E4FF1F2C02D90020FFF7DFFF03252540ED000635FFF78EFFA408A400074B9C46644423680322AA409343B9
:40088000AE40351C1D432560FFF783FF70BDC04600E400E008B5034B1B7A5843FFF76CFF08BDC046D000002010B5041C0F4A116801230B4313600E4A0E4B1A600E4A1368B4
:4008C000802109020B431360002809D100200CE00120FFF7DFFFFFF791FF002804D1013C002CF5D1102000E0002010BD60F02E400220000078002E4010002E40034B1868C7
:40090000C0231B02184000D00120704700010B4010B50D4B1A6801218A431A601A68022082431A60094A10683024A043203C204310601068093CA043014311601A688021D7
:4009400009060A431A6010BD00F02E4000FF2E4038B51D4B1B6801241C40002802D0012816D02BE0184B19680122914319601968022081431960154B19682E30814320380D
:40098000014319601968093881430A431A6018E00D4B1A6802218A431A600C4A10680725A84301431160116830208143103801431160196801220A431A6002E00020FFF76A
:4009C0002FFF201C38BDC04600F02E4000FF2E4008B5FFF7DAFE044A1368C02109020B431360FFF7D6FE08BD00010B4010B5FFF7CCFE08490A68084B1A408024E401224308
:400A00000A600A6813408022120213430B60FFF7C0FE10BD00010B40FF3FFFFF70B5061CFFF7B3FE041CFFF769FF002803D0FFF7DDFF012500E000250848331C0340084A6F
:400A4000106808490840184310601368012D01D1FFF7BEFF201CFFF79CFE70BD0404040010020B40FBFBFBFF10B5244B1B685B0715D5234B1B685B070ED5224B996904204E
:400A800001401F4C22688A4322609A6982439A61DB68002B00D098470420FFF7BFFF174B1B685B0518D5164B1B685B0510D5154B99698022D2001140114802688A43026085
:400AC0009969114A0A409A611B69002B00D098478020C000FFF7A2FF084B1B685B030CD5074B1B685B0304D5064B5B69002B00D098478020C002FFF791FF10BD10020B40DD
:400B0000E000002080010020FFFBFFFF024A10680F2318401060704710000440014B18647047C0460000002010B5041CFFF72DFE044A1368C0218B43A4011C431460FFF7C2
:400B400028FE10BD00E400E00122014B1A60704700E100E00122014B1A60704780E100E010B5041CFFF7F6FF201CFFF7D7FF0320FFF7DAFFFFF7E8FF10BDC0460122014B93
:400B80001A60704780E200E0024A117880230B431370704770000F40014B18707047C04603000F40014B18707047C04643000F40014B18707047C04623000F40014B187026
:400BC0007047C04633000F40014B18707047C04683000F40014B1878C0B2704763000F40014B1878C0B2704753000F4008B501E0FFF7F6FFFFF7EEFFC306F9D408BDC04628
:400C000010B513490B783F229343363A13430B70104C2278012313432370FF20FFF7BCFFFF20FFF7BFFF7F20FFF7C2FF7F20FFF7C5FF0020FFF7C8FFFFF7A7FD22781023FF
:400C400013432370FFF7A5FDFFF7D0FF10BDC04670000F4093000F4008B5064B1B78002B04D1FFF7CDFF0122024B1A70FFF78CFF08BDC0469C010020014B18707047C046C3
:400C800072000F40014B18707047C04673000F4008B5FFF77AFD044A116801230B431360FFF777FD08BDC046000020400004000C014B18607047C04608012040024B1868EE
:400CC0000004000C7047C0460801204010B5041CFFF75BFD054B1968054A0A401A601A6814431C60FFF755FD10BDC04600012040FFFFFCFF0004000C014B18607047C0464C
:400D00001401204038B5041C0D1CFFF73EFDAC40024B1C60FFF73DFD38BDC04608002040014B18607047C0463801204010B5C02292040B4B1A60C32292000A4B1A60012001
:400D4000FFF7EEFF80204002FFF7C0FF80242402201CFFF7CFFF201CFFF7A8FF10BDC046000120402401204008B5064B1B78002B04D1FFF7DBFF0122024B1A70FFF788FFB5
:400D800008BDC0469D01002008B50F200321FFF75BFD0F202349FFF745FD0122224B1A60224B1B68002B01DA214900E02149224A13680B431360214A214B1A60214A224BF4
:400DC0001A600023214A1360214A22490A6022490A6022490A688020400202430A60204A1360204A136001221F4B1A601F4A11681F4B0B40802189050B43136000230DE09D
:400E00009A001C498C4662440021116058001A4A8152990019481A4A88500133002BEFD008BDC046150F000020003A4080033A40700210517002005100003A408C00008024
:400E400004003A400000FF0718003A401C003A400200020010003A4014003A4000033A4028023A4038023A4018023A4030003A40FEFFFFDF80003A40A80100203E180000A3
:400E8000AC01002008B5094B1B68002B0CDB084B1B68002BFBDB054A1368802109060B4313600A20FFF7F6FC08BDC04600003A4008023A4008B5064B1B78002B04D1FFF73B
:400EC00063FF0122024B1A70FFF7DCFF08BDC0469E010020034A1368802149020B4313607047C04604003A4010B5041E02D00020FFF796FC002C07D1A400054B9C466444A8
:400F000020680004000C00E0002000B210BDC04680013A40014B1A681A60704710023A40044B1B681F221340082BF9D0024B18607047C046080224404002244000224308A9
:400F40008B4274D303098B425FD3030A8B4244D3030B8B4228D3030C8B420DD3FF22090212BA030C8B4202D31212090265D0030B8B4219D300E0090AC30B8B4201D3CB03CB
:400F8000C01A5241830B8B4201D38B03C01A5241430B8B4201D34B03C01A5241030B8B4201D30B03C01A5241C30A8B4201D3CB02C01A5241830A8B4201D38B02C01A5241F6
:400FC000430A8B4201D34B02C01A5241030A8B4201D30B02C01A5241CDD2C3098B4201D3CB01C01A524183098B4201D38B01C01A524143098B4201D34B01C01A5241030904
:401000008B4201D30B01C01A5241C3088B4201D3CB00C01A524183088B4201D38B00C01A524143088B4201D34B00C01A5241411A00D20146524110467047FFE701B500205A
:4010400000F00CF802BDC0460029F7D003B5FFF775FF0EBC4243891A1847C0467047C046014B18687047C046440100200E4B70B500251E1C0D4CE41AA410A54204D0AB0055
:40108000F35898470135F8E700F022FD084B00251E1C084CE41AA410A54204D0AB00F35898470135F8E770BDDC1A0000DC1A0000DC1A0000E41A0000031C8218934202D018
:4010C00019700133FAE770470EB410B59DB002A9029008610B48822488604861012040421FABC881084804CBA400006801938C8100F06CF80023029A13701DB010BC08BC22
:4011000003B01847FFFFFF7F44010020F0B58E6885B0071C0C1C03920193B34245D390238A89DB001A423DD003250969236801985B1A029363695D43EB0F5D19029B6D10A3
:4011400001331B189D4200D21D1C381C53050FD5291C00F025FB061E13D0029A216900F0BCFAA289184B134080221343A38111E02A1C00F06DFB061E0CD1381C216900F00B
:40118000C9FA0C23402201203B60A38940421343A38117E0029B2661F61826606561019EED1AA560019BB34200D2019E321C2068039900F09BFA0020A3689B1BA36023686F
:4011C0009E19266005B0F0BD7FFBFFFFF0B59FB0029005938B890E1C171C1B0610D50B69002B0DD1402100F0DBFA30603061002804D10C23029A01381360D0E04023736124
:40120000002306AD6B6120336B761033AB763C1C2378002B03D1E31B049312D003E0252BF9D00134F4E7049B0298311C3A1CFFF76DFF431C00D1ACE06A69049B9446634412
:401240006B612378002B00D1A3E00122002352426A6002A95432521801342B60EB60AB601370AB654F4F2178381C052200F02AFA002808D0C01B01278740381C2B680134F4
:4012800018432860EEE72B68DA0604D55322202102A8121811701A0704D553222B2102A81218117022782A2A01D0099B0EE0059A111D12680591002A01DB099204E05242C8
:4012C000EA60022213432B60013409E02278303A092A04D80A214B4301349B18F6E7099323782E2B18D163782A2B09D1059B02341A1D1B680592002B0DDA01235B420AE089
:40130000002301342278303A092A04D80A214B4301349B18F6E70793234F2178381C032200F0D0F9002807D0C01B40278740381C2B6801341843286021781C480622671C3E
:40134000297600F0BFF9002812D0194B002B06D10722059B073393430833059314E005AB00930298291C321C124B00E000BF07E005AB00930298291C321C0E4B00F08AF888
:401380000390039B013304D06B69039A9B186B613DE7B3890B985B0601D5012040421FB0F0BDC0469A1A0000A01A0000A41A0000000000000D110000F7B5171C01930A6975
:4013C0008B6800900C1C934200DA131C221C3B6043321278002A01D001333B6023689B0602D53B6802333B60062523681D401ED0231C43331B785A1E9341226892061CD5A4
:401400003020E1184031C870211C5A1C45310978A21840320233D1700FE0221C0123009801991932089EB047431C0ED00135E3683A689B1A9D42F0DBDAE7221C0098019913
:401440004332089DA847431C02D10120404220E006232068E1683A6803400025042B03D18D1AEB43DB171D40A3682269934201DD9B1AED180027AF420ADA221C012300986A
:4014800001991A32089EB047431CDED00137F2E70020FEBDF0B58BB006920A1C43320793059004920A7E0C1C109B6E2A00D1A8E011D8632A22D009D8002A00D1B2E0582A34
:4014C00000D0C2E045310A707C4A4FE0642A1DD0692A1BD0B9E0732A00D1A7E009D86F2A29D0702A00D0B0E0202209680A43226037E0752A1FD0782A33D0A6E00E1C1A68A3
:401500004236111D196013683370A1E021681A68080606D4490604D5111D19600023D55E02E0111D19601568002D3BDA2D23049A6D42137036E021681A68080606D4490615
:4015400004D51568111D1960ADB202E0111D196015685A4B227E03930A276F2A1DD108271BE0221C782145321170554A19680392081D226818600D68100602D4500600D515
:40158000ADB2D30702D520231A4322601027002D03D1202322689A432260231C002243331A7002E00A27454B03936368A360002B03DB0422216891432160002D02D1049E7E
:4015C000002B0ED0049E281C391CFFF73DFD039B013E5B5C281C3370391CFFF7AFFC051EF1D1082F09D12368DB0706D563682269934202DC3023013E3370049B9B1B2361B1
:401600002BE009681A68080607D4490605D5111D19601368A28A1A8004E0111D1960136862691A600023049E236116E01A68111D196016680021301C626800F043F80028F7
:4016400001D0801B6060636803E0261C42363270012323610023049A1370079B05980093211C069B09AAFFF7A7FE431C02D10120404221E0236905980699321C079DA847CB
:40168000431CF4D023689B0705D4099BE068984212DA181C10E00025E368099A9B1A9D42F3DA221C0123059806991932079EB047431CDCD00135EFE70BB0F0BDAB1A0000EE
:4016C000BC1A0000C9B28218904204D003788B4202D00130F8E700207047002310B5934203D0CC5CC4540133F9E710BD10B5814208D28B18984205D29B1A013A09D3995C30
:401700008154FAE70023934203D0CC5CC4540133F9E710BD30B500293ED004390B68002B00DAC9181D4A1368141C002B02D14B60116031E099420DD208680A189A4203D11C
:401740001368C3180B6053684B60216024E08A4203D8131C5A68002AF9D11D685C198C420BD10968691858181960904214D110685268091819605A600EE08C4202D90C23AF
:40178000036009E008680C18944203D114685268001908604A60596030BDC046A4010020032370B5CC1C9C430834051C0C2C01D20C2405E0002C03DA0C2300202B6042E039
:4017C0008C42F9D3204A1368101C191C002913D00A68121B0DD40B2A02D90A608B181FE08B4202D15A6802601BE04A685A600B1C17E00B1C4968E9E7144E3368002B03D174
:40180000281C00F04BF83060281C211C00F046F8031C421CD0D00322C61C964386420AD11C60181C07210B301A1D8843821A0AD05142995007E0311A281C00F02FF8431C5F
:40184000BAD0331CECE770BDA4010020A0010020F8B5061C0C1C151C002904D1111CFFF79FFF041C18E0002A03D1FFF753FF2C1C12E000F025F8A8420ED2301C291CFFF72C
:401880008FFF071E07D0211C2A1CFFF726FF301C211CFFF73FFF3C1C201CF8BD38B50023064C051C081C2360FEF724FE431C03D12368002B00D02B6038BDC046B0010020A9
:4018C0000B1F1A68101F002A04DA891804390B68D018043870470000000000005348494654205550210A0D00534849465420444F574E210A0D000000434F4D4D414E442031
:40190000554E4B4E4F574E210A0D000050536F43205541525420436F6D6D756E69636174696F6E2045737461626C69736865640A0D000000256C752C20256C750A0D00000A
:4019400025642C2025640A0D0000000000300F40000400400F40000401000F4006300F4002310F402E320F4029330F4009420F400D430F4002600F40830F36013E40528028
:4019800058045B045F01180173405B045F018204870E8C01910892089607A301AF03B002B104B201B301B404B502B608B708BF04C010C105C5D0C650C721C83AC9FFCAFF7A
:4019C000CBFFCDA0CF04D018D407D804D904DA04DB04DF01E040E2C0E440E540E6C0E8C0EAC0ECC0EEC000410B60184119401A1420082102224429402A01310238084001E2
:401A00004802490150065201531059015A9868016B086D406F0881408405860487088B089340B401C009C20CCA09CC01CE02D008D208D60FE00AE40E0320050149015040BF
:401A40006F20C00CD202D404DA015210560858145C488040841C86108A08B440D407D607E004EC0810011101030405060708090A0B0C0E0F101112131415161718191B1C19
:401A80001D1E1F2021222325262728292A2B2E2F30313233343500004300232D302B2000686C4C006566674546470030313233343536373839414243444546003031323308
:401AC00034353637383961626364656600000000F8B5C046F8BC08BC9E467047D10200006D050000F8B5C046F8BC08BC9E467047A9020000081B0000C80000208000000043
:401B0000700000000000000000000000B80100200000C05D80BB000030000000006CDC0204040400000000000000000000000000000000000000000000000000000000007E
:401B400000000000981A00000000000000000000000000000000000000000000000000000000000000000000000000000000000000000000000000000000000000000000B3
:401B800000000000E4000020000000000000000000000000000000000000000000000000000000000000000000000000000000000000000000000000000000000000000021
:401BC00000000000000000000000000000000000000000000000000000000000000000000000000000000000000000000000000000000000000000000000000000000000E5
:401C000000000000000000000000000000000000000000000000000000000000000000000000000000000000000000000000000000000000000000000000000000000000A4
:401C40000000000000000000000000000000000000000000000000000000000000000000000000000000000000000000000000000000000000000000000000000000000064
:401C80000000000000000000000000000000000000000000000000000000000000000000000000000000000000000000000000000000000000000000000000000000000024
:020000040001F9
:0200000490303A
:0200000087D7A0
:0200000490402A
:4000000000000000000000000000000000000000000000000000000000000000000000000000000000000000000000000000000000000000000000000000000000000000C0
:400040000000000000000000000000000000000000000000000000000000000000000000000000000000000000000000000000000000000000000000000000000000000080
:0200000490501A
:0C00000000020E34119E00010E3C9975A8
:0200000490600A
:0100000001FE
:00000001FF