:4000000000400020110000001D0400001D04000008B500F01DFAC04638B51222294B1A6000F0C4FB284800F01BFB012000F0DEFB302000F025FB254A254B1A60254C802556
:40004000ED052560244A116802230B431360234A234B1A60234A136808218B431360FA20C00000F06FFB204800F062FBC02292001E4B1A601E4B1F4919601F490A601F4AD0
:400080001A60D02149021E4A11601E4A1A60802212061D4B1A608022D2021C4B1A6041221B4B1A60013A1B4B1A6002321A4B1A6008201A4900F02AFB082000F01BFB256018
:4000C00038BDC04630001040001BB7000600008004010B400C020B4078002E402D3E00007C002E406CF02E40DC050000040301400000014041FF00800003014040FF008052
:400100000803014042FF008008010B4000010B402C0101401C010140040101400509000010B572B600223F4B1A60002410E03E4863001A195200821891881B195B001A5AA7
:40014000C31858880004104300F0FAF90134E4B2012CECD93449081C0C30343100F0C6F980225200314B1A80FF3A314B1A70314A314B1A60C0229203304B1A60304A314BC0
:400180001A6099231B04304A1360802149032F4A11602F4A1360A02212032E490A608020C0042D4908602D482D4908602D490A602D4A1360842292032C4B1A602C4A2D4B09
:4001C0001A602D4B197802220A431A702B4802783C218A4328390A430270197816220A431A702C22264B1A60264A274B1A602022264B1A600332264B1A60264A264B1A606D
:400200000A22264B1A60013A254B1A60023A254B1A601E32FF32244B1A60FFF7FDFE00F07FF910BD6CF02E402016000000600F4002600F40003399EE00000240000102402D
:40024000330300000003024000500F4008500F4010500F4014500F4018500F400400990020500F4024500F4030500F4038500F40F0000C002001204000700F4001700F40E3
:40028000000004400019DB0008000440180004400001044012000200080104400C01044008020440000304400803044010B5064C2378002B07D1054B002B02D0044800E055
:4002C00000BF0123237010BD4801002000000000D415000008B5084B002B03D00748084900E000BF07480368002B00D108BD064B002BFBD09847F9E700000000D4150000B2
:400300004C010020C80000200000000008B500F085FB00220B4B1A600B4B1B68DB0703D50132084B1A600AE0074B1B689B0703D50222044B1A6002E0044800F085F900F004
:4003400033FB08BD6401002010010440D815000030B587B0002301930293039304930593294800F04DFB62B600F004F9274800F06BF900F0C1FBFF2000F06AFBFF2000F0F6
:400380006DFB00F03BFC0120082100F005FC00F0DFFB051C1E4B1B68012B18D1022000F0BBFB00F0D5FBFA239B00EC18A04227D3002000F0B1FB0022154B1A6000F0C8FBFC
:4003C000021C01A81349231C00F0FCFC18E0022B16D1012000F0A0FB00F0BAFB0E4BEC18A0420DD8002000F097FB0022084B1A6000F0AEFB021C01A80649231C00F0E2FCE5
:4004000001A800F021F9C5E70D030000EC150000640100201416000018FCFFFFFEE7C04608B5031C084A1068C318084A9A1A802A02DC054A136005E000F090FC0C230360DC
:400440000120404208BDC046CC0000209801002070B50F4E0F4D13E029686B68AC68002202E001C901C30432A242FAD1E868002202E0002102C304328242FAD11035013E26
:40048000002EE9D100F070FCFFF762FFFEE7C04601000000D017000008B50F4A136801218B43136000230AE0032B03D89A000B49505800E00A4899000A4A885001332F2BA9
:4004C000F2D9FFF72DFE0022074B1A60024A116801230B43136008BD00001040000000001D04000000000020C0000020F0B50025002711E0BB00C658F3B2FF22964308E000
:400500006A008A181478A419527822700135013BDBB2002BF4D10137092FEBD9F0BDC0460323044A1360044A13600022034B1A607047C0463000304030003140000E3F4017
:4005400008B50A1C002100F035FC08BD08B500F06DF808BD08B500F01DF808BD08B5044A1368802109060B431360FFF7EFFF08BD0000244008B5064B1B78002B04D1FFF798
:40058000E9FF0122024B1A70FFF7E8FF08BDC0466801002010B5134A134B1A600023134A13600121124A1160124A13480260072412480460124803601248016012490A600D
:4005C000124A13600421124A1160124A1360124A1360124A1360124A1360124A1360124A136010BD0B00000200002440400024404800244007000080000324400403244079
:400600001003244044002440000224400402244050002440880E2440C80E2440480F2440080F2440C80F2440880F2440044A1168044B0B40902109040B4313607047C046DA
:4006400000000240FFFF0FFF38B5051C002402E000F0E4FA0134285D0028F9D138BDC0460230800803D00138FDD1C046C046C0467047EFF3108072B6704780F31088704733
:4006800010B586B0041CFFF7F4FF0E4B1B6800930D4B1B680193033C0C4B1B5D02930C4B1B68039304AA0B4B04936B4605930A4B1A600A490A4A11601B68FFF7DEFF06B06E
:4006C00010BDC04608010B4000010B404417000030001040B6EA0000080010401700008004001040024B1B68012018407047C0460C002E401F2318401E3B8340181C014B13
:400700001860704700E100E001BE704738B5041C0D1C1F2802D90020FFF7F6FFA400034B9C4664442068256038BDC0464000002008B5034B1B7A5843FFF792FF08BDC0467F
:40074000D000002010B5041C0F4A116801230B4313600E4A0E4B1A600E4A1368802109020B431360002809D100200CE00120FFF7DFFFFFF7B7FF002804D1013C002CF5D1A7
:40078000102000E0002010BD60F02E400220000078002E4010002E40034B1868C0231B02184000D00120704700010B4010B50D4B1A6801218A431A601A68022082431A60F3
:4007C000094A10683024A043203C204310601068093CA043014311601A68802109060A431A6010BD00F02E4000FF2E4038B51D4B1B6801241C40002802D0012816D02BE075
:40080000184B19680122914319601968022081431960154B19682E3081432038014319601968093881430A431A6018E00D4B1A6802218A431A600C4A10680725A8430143BA
:400840001160116830208143103801431160196801220A431A6002E00020FFF755FF201C38BDC04600F02E4000FF2E4008B5FFF700FF044A1368C02109020B431360FFF7A6
:40088000FCFE08BD00010B4010B5FFF7F2FE08490A68084B1A408024E40122430A600A6813408022120213430B60FFF7E6FE10BD00010B40FF3FFFFF70B5061CFFF7D9FE3B
:4008C000041CFFF769FF002803D0FFF7DDFF012500E000250848331C0340084A106808490840184310601368012D01D1FFF7BEFF201CFFF7C2FE70BD0404040010020B40BC
:40090000FBFBFBFF10B5244B1B685B0715D5234B1B685B070ED5224B9969042001401F4C22688A4322609A6982439A61DB68002B00D098470420FFF7BFFF174B1B685B0579
:4009400018D5164B1B685B0510D5154B99698022D2001140114802688A4302609969114A0A409A611B69002B00D098478020C000FFF7A2FF084B1B685B030CD5074B1B6867
:400980005B0304D5064B5B69002B00D098478020C002FFF791FF10BD10020B40E00000206C010020FFFBFFFF024A1068032318401060704710010440014B58647047C046F7
:4009C0000000002010B5041CFFF753FE044A1168044B0B40A4031C431460FFF74EFE10BD00E400E0FF3FFFFF0222014B1A60704700E100E00222014B1A60704780E100E07D
:400A000010B5041CFFF7F6FF201CFFF7D5FF0320FFF7D8FFFFF7E8FF10BDC0460222014B1A60704780E200E0024A117880230B431370704772000F40014B18707047C0460B
:400A400002000F40014B18707047C04642000F40014B18707047C04622000F40014B18707047C04632000F40014B18707047C04682000F40014B1878C0B2704762000F40D7
:400A8000014B1878C0B2704752000F4008B501E0FFF7F6FFFFF7EEFFC306F9D408BDC04610B513490B783F229343363A13430B70104C2278012313432370FF20FFF7BCFFD4
:400AC000FF20FFF7BFFF7F20FFF7C2FF7F20FFF7C5FF0020FFF7C8FFFFF7CBFD2278102313432370FFF7C9FDFFF7D0FF10BDC04672000F4092000F4008B5064B1B78002B61
:400B000004D1FFF7CDFF0122024B1A70FFF78CFF08BDC04688010020014B18707047C04673000F4008B5FFF7A4FD044A116801230B431360FFF7A1FD08BDC046000020401D
:400B40000004000C014B18607047C04608012040024B18680004000C7047C0460801204010B5041CFFF785FD054B1968054A0A401A601A6814431C60FFF77FFD10BDC0469D
:400B800000012040FFFFFCFF0004000C014B18607047C0461401204038B5041C0D1CFFF768FDAC40024B1C60FFF767FD38BDC04608002040014B18607047C04638012040B8
:400BC00010B5C02292040B4B1A60C32292000A4B1A600120FFF7EEFF80204002FFF7C0FF80242402201CFFF7CFFF201CFFF7A8FF10BDC046000120402401204008B5064B9D
:400C00001B78002B04D1FFF7DBFF0122024B1A70FFF788FF08BDC04689010020044B1B681F221340082BF9D0024B18607047C0460802244040022440002243088B4274D3EC
:400C400003098B425FD3030A8B4244D3030B8B4228D3030C8B420DD3FF22090212BA030C8B4202D31212090265D0030B8B4219D300E0090AC30B8B4201D3CB03C01A524175
:400C8000830B8B4201D38B03C01A5241430B8B4201D34B03C01A5241030B8B4201D30B03C01A5241C30A8B4201D3CB02C01A5241830A8B4201D38B02C01A5241430A8B424C
:400CC00001D34B02C01A5241030A8B4201D30B02C01A5241CDD2C3098B4201D3CB01C01A524183098B4201D38B01C01A524143098B4201D34B01C01A524103098B4201D380
:400D00000B01C01A5241C3088B4201D3CB00C01A524183088B4201D38B00C01A524143088B4201D34B00C01A5241411A00D20146524110467047FFE701B5002000F00CF80A
:400D400002BDC0460029F7D003B5FFF775FF0EBC4243891A1847C0467047C046014B18687047C046440100200E4B70B500251E1C0D4CE41AA410A54204D0AB00F358984722
:400D80000135F8E700F012FD084B00251E1C084CE41AA410A54204D0AB00F35898470135F8E770BDB8170000B8170000B8170000C0170000031C8218934202D01970013334
:400DC000FAE770470EB410B59DB002A9029008610B48822488604861012040421FABC881084804CBA400006801938C8100F06CF80023029A13701DB010BC08BC03B01847D0
:400E0000FFFFFF7F44010020F0B58E6885B0071C0C1C03920193B34245D390238A89DB001A423DD003250969236801985B1A029363695D43EB0F5D19029B6D1001331B1851
:400E40009D4200D21D1C381C53050FD5291C00F025FB061E13D0029A216900F0BCFAA289184B134080221343A38111E02A1C00F06DFB061E0CD1381C216900F0C9FA0C2383
:400E8000402201203B60A38940421343A38117E0029B2661F61826606561019EED1AA560019BB34200D2019E321C2068039900F09BFA0020A3689B1BA36023689E19266027
:400EC00005B0F0BD7FFBFFFFF0B59FB0029005938B890E1C171C1B0610D50B69002B0DD1402100F0DBFA30603061002804D10C23029A01381360D0E040237361002306AD8E
:400F00006B6120336B761033AB763C1C2378002B03D1E31B049312D003E0252BF9D00134F4E7049B0298311C3A1CFFF76DFF431C00D1ACE06A69049B944663446B61237884
:400F4000002B00D1A3E00122002352426A6002A95432521801342B60EB60AB601370AB654F4F2178381C052200F02AFA002808D0C01B01278740381C2B680134184328607B
:400F8000EEE72B68DA0604D55322202102A8121811701A0704D553222B2102A81218117022782A2A01D0099B0EE0059A111D12680591002A01DB099204E05242EA60022240
:400FC00013432B60013409E02278303A092A04D80A214B4301349B18F6E7099323782E2B18D163782A2B09D1059B02341A1D1B680592002B0DDA01235B420AE000230134A2
:401000002278303A092A04D80A214B4301349B18F6E70793234F2178381C032200F0D0F9002807D0C01B40278740381C2B6801341843286021781C480622671C297600F00A
:40104000BFF9002812D0194B002B06D10722059B073393430833059314E005AB00930298291C321C124B00E000BF07E005AB00930298291C321C0E4B00F08AF80390039BE9
:40108000013304D06B69039A9B186B613DE7B3890B985B0601D5012040421FB0F0BDC046761700007C1700008017000000000000090E0000F7B5171C01930A698B680090A2
:4010C0000C1C934200DA131C221C3B6043321278002A01D001333B6023689B0602D53B6802333B60062523681D401ED0231C43331B785A1E9341226892061CD53020E118E1
:401100004031C870211C5A1C45310978A21840320233D1700FE0221C0123009801991932089EB047431C0ED00135E3683A689B1A9D42F0DBDAE7221C009801994332089D45
:40114000A847431C02D10120404220E006232068E1683A6803400025042B03D18D1AEB43DB171D40A3682269934201DD9B1AED180027AF420ADA221C0123009801991A32A1
:40118000089EB047431CDED00137F2E70020FEBDF0B58BB006920A1C43320793059004920A7E0C1C109B6E2A00D1A8E011D8632A22D009D8002A00D1B2E0582A00D0C2E0AB
:4011C00045310A707C4A4FE0642A1DD0692A1BD0B9E0732A00D1A7E009D86F2A29D0702A00D0B0E0202209680A43226037E0752A1FD0782A33D0A6E00E1C1A684236111D72
:40120000196013683370A1E021681A68080606D4490604D5111D19600023D55E02E0111D19601568002D3BDA2D23049A6D42137036E021681A68080606D4490604D5156868
:40124000111D1960ADB202E0111D196015685A4B227E03930A276F2A1DD108271BE0221C782145321170554A19680392081D226818600D68100602D4500600D5ADB2D30735
:4012800002D520231A4322601027002D03D1202322689A432260231C002243331A7002E00A27454B03936368A360002B03DB0422216891432160002D02D1049E002B0ED0B1
:4012C000049E281C391CFFF73DFD039B013E5B5C281C3370391CFFF7AFFC051EF1D1082F09D12368DB0706D563682269934202DC3023013E3370049B9B1B23612BE0096841
:401300001A68080607D4490605D5111D19601368A28A1A8004E0111D1960136862691A600023049E236116E01A68111D196016680021301C626800F043F8002801D0801B0A
:401340006060636803E0261C42363270012323610023049A1370079B05980093211C069B09AAFFF7A7FE431C02D10120404221E0236905980699321C079DA847431CF4D017
:4013800023689B0705D4099BE068984212DA181C10E00025E368099A9B1A9D42F3DA221C0123059806991932079EB047431CDCD00135EFE70BB0F0BD87170000981700008C
:4013C000C9B28218904204D003788B4202D00130F8E700207047002310B5934203D0CC5CC4540133F9E710BD10B5814208D28B18984205D29B1A013A09D3995C8154FAE753
:401400000023934203D0CC5CC4540133F9E710BD30B500293ED004390B68002B00DAC9181D4A1368141C002B02D14B60116031E099420DD208680A189A4203D11368C3187F
:401440000B6053684B60216024E08A4203D8131C5A68002AF9D11D685C198C420BD10968691858181960904214D110685268091819605A600EE08C4202D90C23036009E0BC
:4014800008680C18944203D114685268001908604A60596030BDC04690010020032370B5CC1C9C430834051C0C2C01D20C2405E0002C03DA0C2300202B6042E08C42F9D302
:4014C000204A1368101C191C002913D00A68121B0DD40B2A02D90A608B181FE08B4202D15A6802601BE04A685A600B1C17E00B1C4968E9E7144E3368002B03D1281C00F0DD
:401500004BF83060281C211C00F046F8031C421CD0D00322C61C964386420AD11C60181C07210B301A1D8843821A0AD05142995007E0311A281C00F02FF8431CBAD0331CBD
:40154000ECE770BD900100208C010020F8B5061C0C1C151C002904D1111CFFF79FFF041C18E0002A03D1FFF753FF2C1C12E000F025F8A8420ED2301C291CFFF78FFF071E7D
:4015800007D0211C2A1CFFF726FF301C211CFFF73FFF3C1C201CF8BD38B50023064C051C081C2360FEF73CFF431C03D12368002B00D02B6038BDC046940100200B1F1A68B6
:4015C000101F002A04DA891804390B68D01804387047000000000000434F4D4D414E4420554E4B4E4F574E210A0D000050536F43205541525420436F6D6D756E6963617420
:40160000696F6E2045737461626C69736865640A0D000000256C752C20256C750A0D000000300F40000400400F40000401000F4002300F4002310F4030320F4029330F4091
:4016400005400F4005410F4007420F4007430F4002600F40820FDB04DF016F0A87080303070C0A081102160D19081E0422012E023004310232023308340135043608370156
:401680003E104030410545D046024715483649FF4AFF4BFF4DA04F04501852805407580459045A045B045F01604062C06440654066C068C06AC06CC06EC0DB04DF010604C3
:4016C0000D080F02168017401D081E081F81244026202722362037023D083F0245084F815504568457415C405E085F216A806B087740824083888F01B702C040C2A0C4909A
:40170000CCA0CEC0D040D210D6F0E004E401EE40531056208710D460E64067028301B620D680E6200320050149016F20C00CD202DA01522057045A4082608F04D407E00201
:4017400010011101030405060708090A0B0C0E0F101112131415161718191B1C1D1E1F2021222325262728292A2B2E2F30313233343500004300232D302B2000686C4C0028
:401780006566674546470030313233343536373839414243444546003031323334353637383961626364656600000000F8B5C046F8BC08BC9E467047D502000099040000E7
:4017C000F8B5C046F8BC08BC9E467047AD020000E0170000C8000020800000005000000000000000980100200000C05D80BB000030000000006CDC0204040400000000002E
:40180000000000000000000000000000000000000000000000000000000000007417000000000000000000000000000000000000000000000000000000000000000000001D
:4018400000000000000000000000000000000000000000000000000000000000E4000020000000000000000000000000000000000000000000000000000000000000000064
:401880000000000000000000000000000000000000000000000000000000000000000000000000000000000000000000000000000000000000000000000000000000000028
:4018C00000000000000000000000000000000000000000000000000000000000000000000000000000000000000000000000000000000000000000000000000000000000E8
:4019000000000000000000000000000000000000000000000000000000000000000000000000000000000000000000000000000000000000000000000000000000000000A7
:401940000000000000000000000000000000000000000000000000000000000000000000000000000000000000000000000000000000000000000000000000000000000067
:020000040001F9
:0200000490303A
:020000009098D6
:0200000490402A
:4000000000000000000000000000000000000000000000000000000000000000000000000000000000000000000000000000000000000000000000000000000000000000C0
:400040000000000000000000000000000000000000000000000000000000000000000000000000000000000000000000000000000000000000000000000000000000000080
:0200000490501A
:0C00000000020E34119E00010E3BA236DF
:0200000490600A
:0100000001FE
:00000001FF